:1000000012C02CC02BC02AC029C028C027C026C0BF
:1000100025C024C023C022C021C020C01FC01EC0D4
:100020001DC01CC01BC011241FBECFE5D4E0DEBF25
:10003000CDBF10E0A0E6B0E0E0EAF2E002C005903B
:100040000D92AA3BB107D9F710E0AAEBB0E001C0CE
:100050001D92AC3BB107E1F78AD020C1D1CFA8985F
:10006000A99882BB80E29EE4FC013197F1F7AA9A3D
:10007000FC013197F1F7AA980197F1F70895A89834
:10008000A998282F206822BB9093BB008093BA00C8
:1000900080E29EE4FC013197F1F7AA9AFC013197C6
:1000A000F1F7AA980197F1F708951F93182F8091FF
:1000B000BA009091BB00409739F480E490E09093AF
:1000C000BB008093BA000DC08091BA009091BB0034
:1000D0008035910539F41092BB001092BA0080E08F
:1000E00090E0CDDFA89AA99812BB8091BA009091B8
:1000F000BB0001969093BB008093BA0080E29EE41F
:10010000FC013197F1F7AA9AFC013197F1F7AA980F
:100110000197F1F71F91089581E0A1DF08958DE027
:100120009EDF08950F931F938FEF81BB84BB12BA9C
:10013000A898A998AA9800E41CE9C8010197F1F7CA
:1001400080E38DDFC8010197F1F780E388DFC80104
:100150000197F1F780E383DFC8010197F1F78FE39F
:100160007EDF8CE07CDFD8DF1F910F9108950F9325
:100170001F93CF93DF93D6DF08EC10E086E090E08A
:100180007EDFC0E6D0E002C089918FDF80E0C43618
:10019000D807D1F783E490E072DFC6E6D0E002C072
:1001A000899183DF80E0CF36D807D1F788E99AE3D9
:1001B000F8013197F1F70197D9F7AEDF80E090E0D1
:1001C0005EDF82E090E05BDFC1E7D0E002C08991B2
:1001D0006CDF80E0CD37D807D1F788E99AE3F801E2
:1001E0003197F1F70197D9F797DF80E090E047DF8B
:1001F00081E090E044DFCFE7D0E002C0899155DF95
:1002000080E0CD38D807D1F782E490E038DFCFE83E
:10021000D0E002C0899149DF80E0CA39D807D1F720
:1002200088E99AE3F8013197F1F70197D9F774DF7C
:1002300080E090E024DF84E090E021DFCCE9D0E0B2
:1002400002C0899132DF80E0C53AD807D1F788E94A
:100250009AE3F8013197F1F70197D9F75DDF80E074
:1002600090E00DDFC7EAD0E002C089911EDF80E098
:10027000C83BD807D1F788E99AE3F8013197F1F73D
:100280000197D9F788E99AE3F8013197F1F70197D7
:10029000D9F742DF80E090E0F2DE70CFF894FFCF34
:1002A000494545450A00436F6E636F726469610A90
:1002B00000496E73746974757465206F660A004531
:1002C0006C656374726963616C20616E640A0045D9
:1002D0006C656374726F6E6963730A00456E67695B
:1002E0006E656572730A00696565652E636F6E637E
:0A02F0006F726469612E63610A00F9
:00000001FF
